:100F28000313831605108510051185110512851206
:100F38000513031383160814881408150313831262
:100F480086010313831607108710071187110313EF
:100F5800831287019201003092000301081CB82F08
:100F6800881CC12FC92FB22F04301202031D920A08
:100F780012080710F827F827B22F00301202031DB5
:100F880092031208F827F827B22F0030120203192B
:100F9800DF2F0708013012020319E42F0230120272
:100FA8000319E92F033012020319EE2F043012023D
:100FB8000319F32FB22F0710871007118711B22FCB
:100FC8000714871007118711B22F0710871407110C
:100FD8008711B22F0710871007158711B22F071036
:100FE800871007118715B22F903090009100900B51
:080FF800FB2F910BFB2F0034CD
:04400E00F520FF3F5B
:00000001FF
